{
  "_format": "hh-sol-artifact-1",
  "contractName": "EncryptedOneTimeCode",
  "sourceName": "contracts/EncryptedOneTimeCode.sol",
  "abi": [
    {
      "anonymous": false,
      "inputs": [
        {
          "indexed": true,
          "internalType": "address",
          "name": "user",
          "type": "address"
        },
        {
          "indexed": false,
          "internalType": "bytes32",
          "name": "resultHandle",
          "type": "bytes32"
        }
      ],
      "name": "CodeVerified",
      "type": "event"
    },
    {
      "anonymous": false,
      "inputs": [
        {
          "indexed": true,
          "internalType": "address",
          "name": "setter",
          "type": "address"
        }
      ],
      "name": "ExpectedCodeSet",
      "type": "event"
    },
    {
      "inputs": [],
      "name": "getExpectedCode",
      "outputs": [
        {
          "internalType": "euint32",
          "name": "",
          "type": "bytes32"
        }
      ],
      "stateMutability": "view",
      "type": "function"
    },
    {
      "inputs": [],
      "name": "isInitialized",
      "outputs": [
        {
          "internalType": "bool",
          "name": "",
          "type": "bool"
        }
      ],
      "stateMutability": "view",
      "type": "function"
    },
    {
      "inputs": [],
      "name": "protocolId",
      "outputs": [
        {
          "internalType": "uint256",
          "name": "",
          "type": "uint256"
        }
      ],
      "stateMutability": "pure",
      "type": "function"
    },
    {
      "inputs": [
        {
          "internalType": "externalEuint32",
          "name": "inputEuint32",
          "type": "bytes32"
        },
        {
          "internalType": "bytes",
          "name": "inputProof",
          "type": "bytes"
        }
      ],
      "name": "setExpectedCode",
      "outputs": [],
      "stateMutability": "nonpayable",
      "type": "function"
    },
    {
      "inputs": [
        {
          "internalType": "externalEuint32",
          "name": "inputEuint32",
          "type": "bytes32"
        },
        {
          "internalType": "bytes",
          "name": "inputProof",
          "type": "bytes"
        }
      ],
      "name": "verifyCode",
      "outputs": [
        {
          "internalType": "ebool",
          "name": "encryptedResult",
          "type": "bytes32"
        }
      ],
      "stateMutability": "nonpayable",
      "type": "function"
    }
  ],
  "bytecode": "0x608060405234801561000f575f5ffd5b5061018a6100ae604080516080810182525f808252602082018190529181018290526060810191909152506040805160808101825273687820221192c5b662b25367f70076a37bc79b6c815273848b0066793bcc60346da1f49049357399b8d595602082015273a02cda4ca3a71d7c46997716f4283aa851c2881291810191909152731364cbbf2cdf5032c47d8226a6f6fbd2afcdacac606082015290565b80517f9e7b61f58c47dc699ac88507c4f5bb9f121c03808c5676a8078fe583e464970080546001600160a01b03199081166001600160a01b039384161790915560208301517f9e7b61f58c47dc699ac88507c4f5bb9f121c03808c5676a8078fe583e46497018054831691841691909117905560408301517f9e7b61f58c47dc699ac88507c4f5bb9f121c03808c5676a8078fe583e46497028054831691841691909117905560608301517f9e7b61f58c47dc699ac88507c4f5bb9f121c03808c5676a8078fe583e46497038054909216921691909117905550565b610794806101975f395ff3fe608060405234801561000f575f5ffd5b5060043610610064575f3560e01c806377b050cb1161004d57806377b050cb146100a4578063da1f12ab146100ab578063ff9fb23e146100b3575f5ffd5b806301177f6314610068578063392e53cd1461008e575b5f5ffd5b61007b61007636600461066b565b6100c8565b6040519081526020015b60405180910390f35b60015460ff166040519015158152602001610085565b5f5461007b565b61271161007b565b6100c66100c136600461066b565b6101c6565b005b6001545f9060ff166101215760405162461bcd60e51b815260206004820152601560248201527f457870656374656420636f6465206e6f7420736574000000000000000000000060448201526064015b60405180910390fd5b5f6101618585858080601f0160208091040260200160405190810160405280939291908181526020018383808284375f920191909152506102b192505050565b90505f61016f825f546102be565b905061017a816102ec565b5061018581336102fb565b506040515f815233907feb5aa8ca551db212a967dd495a21c5ba1224a67056b6c0a52ca69ef6e389c67c9060200160405180910390a29150505b9392505050565b60015460ff16156102195760405162461bcd60e51b815260206004820152601960248201527f457870656374656420636f646520616c726561647920736574000000000000006044820152606401610118565b5f6102598484848080601f0160208091040260200160405190810160405280939291908181526020018383808284375f920191909152506102b192505050565b5f8190556001805460ff1916811790559050610274816102ec565b506102805f54336102fb565b5060405133907fd594d404cedb68b21c6315f308d644fd994d0ed751aac50226252766e68e6ac7905f90a250505050565b5f6101bf8383600461030d565b5f826102d0576102cd5f61042d565b92505b816102e1576102de5f61042d565b91505b6101bf83835f610445565b5f6102f78230610525565b5090565b5f6103068383610525565b5090919050565b7f9e7b61f58c47dc699ac88507c4f5bb9f121c03808c5676a8078fe583e46497015460405163196d0b9b60e01b81525f917f9e7b61f58c47dc699ac88507c4f5bb9f121c03808c5676a8078fe583e4649700916001600160a01b039091169063196d0b9b90610386908890339089908990600401610702565b6020604051808303815f875af11580156103a2573d5f5f3e3d5ffd5b505050506040513d601f19601f820116820180604052508101906103c6919061075c565b8154604051630f8e573b60e21b8152600481018390523360248201529193506001600160a01b031690633e395cec906044015f604051808303815f87803b15801561040f575f5ffd5b505af1158015610421573d5f5f3e3d5ffd5b50505050509392505050565b5f61043f8263ffffffff1660046105ae565b92915050565b5f5f82156104585750600160f81b61045b565b505f5b5f7f9e7b61f58c47dc699ac88507c4f5bb9f121c03808c5676a8078fe583e4649700600181015460405163f77f3f1d60e01b815260048101899052602481018890527fff00000000000000000000000000000000000000000000000000000000000000851660448201529192506001600160a01b03169063f77f3f1d906064016020604051808303815f875af11580156104f7573d5f5f3e3d5ffd5b505050506040513d601f19601f8201168201806040525081019061051b919061075c565b9695505050505050565b5f7f9e7b61f58c47dc699ac88507c4f5bb9f121c03808c5676a8078fe583e46497008054604051635ca4b5b160e11b8152600481018690526001600160a01b03858116602483015292935091169063b9496b62906044015f604051808303815f87803b158015610593575f5ffd5b505af11580156105a5573d5f5f3e3d5ffd5b50505050505050565b7f9e7b61f58c47dc699ac88507c4f5bb9f121c03808c5676a8078fe583e464970154604051639cd07acb60e01b81525f917f9e7b61f58c47dc699ac88507c4f5bb9f121c03808c5676a8078fe583e4649700916001600160a01b0390911690639cd07acb906106239087908790600401610773565b6020604051808303815f875af115801561063f573d5f5f3e3d5ffd5b505050506040513d601f19601f82011682018060405250810190610663919061075c565b949350505050565b5f5f5f6040848603121561067d575f5ffd5b83359250602084013567ffffffffffffffff81111561069a575f5ffd5b8401601f810186136106aa575f5ffd5b803567ffffffffffffffff8111156106c0575f5ffd5b8660208284010111156106d1575f5ffd5b939660209190910195509293505050565b605481106106fe57634e487b7160e01b5f52602160045260245ffd5b9052565b8481526001600160a01b0384166020820152608060408201525f8351806080840152806020860160a085015e5f60a0828501015260a0601f19601f83011684010191505061075360608301846106e2565b95945050505050565b5f6020828403121561076c575f5ffd5b5051919050565b828152604081016101bf60208301846106e256fea164736f6c634300081b000a",
  "linkReferences": {},
  "deployedLinkReferences": {}
}